:100000000C9462000C948A000C948A000C948A0070
:100010000C948A000C948A000C948A000C948A0038
:100020000C9417030C948A000C948A000C948A0098
:100030000C948A000C948A000C948A000C948A0018
:100040000C94CD020C948A000C949B020C947502C3
:100050000C948A000C948A000C948A000C948A00F8
:100060000C948A000C948A000000000024002700F1
:100070002A0000000000250028002B0000000008D6
:10008000000201000003040700000000000000005F
:1000900000000000230026002900040404040404D6
:1000A0000404020202020202030303030303010227
:1000B00004081020408001020408102001020408F6
:1000C0001020E10311241FBECFEFD8E0DEBFCDBF6B
:1000D00024E0A2E1B1E001C01D92AC35B207E1F726
:1000E00011E0A0E0B1E0EAEAF9E002C005900D926B
:1000F000A231B107D9F710E0C2E6D0E004C02197E1
:10010000FE010E94CD04C136D107C9F70E9419042F
:100110000C94D3040C940000FC01538D448D252FC6
:1001200030E0842F90E0821B930B541710F0CF9691
:10013000089501970895FC01918D828D981761F0C3
:10014000A28DAE0FBF2FB11D5D968C91928D9F5FDA
:100150009F73928F90E008958FEF9FEF0895FC01B9
:10016000918D828D981731F0828DE80FF11D858D6C
:1001700090E008958FEF9FEF0895FC01918D228DFF
:10018000892F90E0805C9F4F821B91098F73992784
:100190000895FC01A48DA80FB92FB11DA35ABF4F1C
:1001A0002C91848D90E001968F739927848FA68976
:1001B000B7892C93A089B1898C91837080648C93CA
:1001C000938D848D981306C00288F389E02D808179
:1001D0008F7D80830895EF92FF920F931F93CF93AB
:1001E000DF93EC0181E0888F9B8D8C8D98131AC072
:1001F000E889F989808185FF15C09FB7F894EE8959
:10020000FF896083E889F9898081837080648083B5
:100210009FBF81E090E0DF91CF911F910F91FF9000
:10022000EF900895F62E0B8D10E00F5F1F4F0F73A8
:100230001127E02E8C8D8E110CC00FB607FCFACF63
:10024000E889F989808185FFF5CFCE010E94C90038
:10025000F1CFEB8DEC0FFD2FF11DE35AFF4FF08234
:100260009FB7F8940B8FEA89FB8980818062CFCF9A
:10027000CF93DF93EC01888D8823B9F0AA89BB89DD
:10028000E889F9898C9185FD03C0808186FD0DC0C8
:100290000FB607FCF7CF8C9185FFF2CF808185FFE9
:1002A000EDCFCE010E94C900E9CFDF91CF91089533
:1002B0008EEA92E00E94BD0021E0892B09F420E043
:1002C000822F089580E090E0892B29F00E94580148
:1002D00081110C9400000895AF92BF92CF92DF92EB
:1002E000EF92FF920F931F93CF93DF936C017B01EB
:1002F0008B01040F151FEB015E01AE18BF08C0177C
:10030000D10759F06991D601ED91FC910190F081EE
:10031000E02DC6010995892B79F7C501DF91CF91B1
:100320001F910F91FF90EF90DF90CF90BF90AF9013
:100330000895833081F028F4813099F08230A9F05B
:1003400008958730A9F08830C9F08430B1F48091E5
:1003500080008F7D03C0809180008F778093800024
:10036000089584B58F7784BD089584B58F7DFBCFC4
:100370008091B0008F778093B00008958091B00095
:100380008F7DF9CF1F93CF93DF93282F30E0F901B2
:10039000E458FF4F8491F901E255FF4FD491F901E0
:1003A000E656FF4FC491CC23A9F0162F81110E946D
:1003B0009901EC2FF0E0EE0FFF1FEE58FF4FA591D3
:1003C000B4918FB7F894EC91111108C0D095DE2349
:1003D000DC938FBFDF91CF911F910895DE2BF8CF73
:1003E000CF93DF9390E0FC01E255FF4F24918656B6
:1003F0009F4FFC0184918823D1F090E0880F991FD2
:10040000FC01E859FF4FA591B491FC01EE58FF4F54
:10041000C591D49161110EC09FB7F8948C91E22FD1
:10042000E0958E238C932881E223E8839FBFDF91A0
:10043000CF9108958FB7F894EC91E22BEC938FBF96
:10044000F6CFABE4B3E011968C931197282F30E0F0
:10045000F901E255FF4FE4911496EC931497F901DA
:10046000E656FF4FE491F0E0EE0FFF1FE057FF4F1D
:100470002591349113963C932E93129760E00C943F
:10048000F0013FB7F8948091170190911801A09165
:100490001901B0911A0126B5A89B05C02F3F19F08C
:1004A0000196A11DB11D3FBFBA2FA92F982F8827F4
:1004B000BC01CD01620F711D811D911D42E0660FCF
:1004C000771F881F991F4A95D1F708950C94410210
:1004D00080911B0190911C01181619062CF40197AC
:1004E00090931C0180931B0108951F920F920FB6E9
:1004F0000F9211242F933F934F935F936F937F93AA
:100500008F939F93AF93BF93EF93FF938EEA92E005
:100510000E94C900FF91EF91BF91AF919F918F9180
:100520007F916F915F914F913F912F910F900FBEEF
:100530000F901F9018951F920F920FB60F921124D3
:100540002F938F939F93EF93FF93E091BE02F091CF
:10055000BF028081E091C402F091C50282FD1BC000
:1005600090818091C7028F5F8F732091C80282179C
:1005700041F0E091C702F0E0E255FD4F958F809386
:10058000C702FF91EF919F918F912F910F900FBE16
:100590000F901F9018958081F4CF1F920F920FB685
:1005A0000F9211242F933F938F939F93AF93BF93F9
:1005B0008091130190911401A0911501B091160141
:1005C0003091120123E0230F2D3758F50196A11D1C
:1005D000B11D209312018093130190931401A093F5
:1005E0001501B09316018091170190911801A09107
:1005F0001901B0911A010196A11DB11D8093170137
:1006000090931801A0931901B0931A01BF91AF9173
:100610009F918F913F912F910F900FBE0F901F9040
:10062000189526E8230F0296A11DB11DD2CF1F9267
:100630000F920FB60F9211242F933F934F935F9316
:100640006F937F938F939F93AF93BF93CF93EF93CA
:10065000FF93E0914D03F0914E03C08180914F03D1
:10066000C8238091500390915103019649F08091E5
:10067000500390915103019690935103809350033E
:1006800080914B0381111DC0C1116EC08091500338
:10069000909151038536910578F010925403809122
:1006A000500390915103909357038093560381E038
:1006B0008093550380934B03109251031092500383
:1006C00053C080914B038130A9F4CC2309F44CC072
:1006D000E09155038E0F80935503809150039091C4
:1006E0005103F0E0EE0FFF1FE55BFC4F948783871B
:1006F00082E0E0CF80914B03823009F053C0C111FA
:1007000022C0E091550381E0E03768F08093540304
:1007100083E080934B03E0915203F09153033097B1
:1007200059F20995C9CF8E0F8093550380915003DC
:1007300090915103F0E0EE0FFF1FE55BFC4F9487B3
:10074000838781E0B7CF8091500390915103853624
:10075000910550F083E080934B03E0915203F091B8
:100760005303309709F0099580913704813041F4A3
:1007700080913604C1111DC061E081111DC02D9A08
:10078000FF91EF91CF91BF91AF919F918F917F9109
:100790006F915F914F913F912F910F900FBE0F90EE
:1007A0001F90189580914B038330F1F6C111DCCF77
:1007B00083CF882321F060E00E94C201E1CF2D9811
:1007C000DFCFEEEAF2E01382128288EE93E0A0E03F
:1007D000B0E084839583A683B78384E091E091831E
:1007E000808385EC90E09587848784EC90E0978700
:1007F000868780EC90E0918B808B81EC90E0938BEE
:10080000828B82EC90E0958B848B86EC90E0978BCA
:10081000868B118E128E138E148E8BE493E0909340
:10082000500480934F0480E00E942102109236040D
:100830000895789484B5826084BD84B5816084BD58
:1008400085B5826085BD85B5816085BD80916E006E
:10085000816080936E00109281008091810082609F
:1008600080938100809181008160809381008091DC
:1008700080008160809380008091B10084608093CB
:10088000B1008091B00081608093B00080917A00C7
:10089000846080937A0080917A00826080937A00ED
:1008A00080917A00816080937A0080917A008068DC
:1008B00080937A001092C10060E080E00E94F00115
:1008C00060E080E00E94F00160E080E00E94F001C2
:1008D00060E080E00E94F00180E00E94210210921E
:1008E000360460E080E00E94F00180E00E94210276
:1008F00061E08091AB020E94F00161E080E00E9423
:10090000F00161E080E00E94F00161E080E00E947F
:10091000F00161E080E00E94F001CCE7D0E00EEA57
:1009200010E09AE9E92E90E0F92E20E0C22E20E0B6
:10093000D22EFE018491F801A490F701B490BB205F
:1009400049F181110E949901EB2DF0E0EE0FFF1F9C
:10095000E057FF4FA591B4918C91A82231E020E09F
:1009600009F430E0832F922F9C01F1E02F272170B2
:100970002093AD02892B21F40E9468020E94660236
:10098000C114D104B1F20E945801882391F20E944F
:100990000000CFCF90E080E0E7CFEE0FFF1F059083
:0A09A000F491E02D0994F894FFCFC4
:1009AA0000000000EB006C018C003801BD009B00C8
:0209BA00AF008C
:00000001FF
