:020000040000FA
:100000000C9462000C947F000C947F000C947F0091
:100010000C947F000C947F000C947F000C947F0064
:100020000C94D6020C947F000C947F000C947F00FB
:100030000C947F000C947F000C947F000C947F0044
:100040000C948C020C947F000C947F000C947F0025
:100050000C947F000C947F000C947F000C947F0024
:100060000C947F000C947F00000000002400270007
:100070002A0000000000250028002B0000000000DE
:1000800023002600290004040404040404040202DA
:100090000202020203030303030301020408102007
:1000A0004080010204081020010204081020000012
:1000B0000008000201000003040700000000000027
:1000C0000000FC0311241FBECFEFD8E0DEBFCDBF80
:1000D00022E0A0E0B1E001C01D92AB32B207E1F72F
:1000E00010E0C2E6D0E004C02197FE010E94230484
:1000F000C136D107C9F70E9494030C9429040C94CB
:100100000000833081F028F4813099F08230A9F02A
:1001100008958730A9F08830C9F08430B1F4809117
:1001200080008F7D03C0809180008F778093800056
:10013000089584B58F7784BD089584B58F7DFBCFF6
:100140008091B0008F778093B00008958091B000C7
:100150008F7DF9CFCF93DF93282F30E0F901E2555F
:10016000FF4F8491F901E656FF4FD491F901EA5708
:10017000FF4FC491CC23A1F081110E948100EC2F8C
:10018000F0E0EE0FFF1FE458FF4FA591B491EC9102
:10019000ED2381E090E009F480E0DF91CF910895B4
:1001A00080E090E0FACF1F93CF93DF93282F30E0C9
:1001B000F901E255FF4F8491F901E656FF4FD491C2
:1001C000F901EA57FF4FC491CC23A9F0162F8111F2
:1001D0000E948100EC2FF0E0EE0FFF1FEE58FF4F62
:1001E000A591B4918FB7F894EC91111108C0D095F6
:1001F000DE23DC938FBFDF91CF911F910895DE2B1B
:10020000F8CFCF93DF9390E0FC01E656FF4F2491A7
:100210008A579F4FFC0184918823D1F090E0880F8A
:10022000991FFC01E859FF4FA591B491FC01EE58CC
:10023000FF4FC591D49161110EC09FB7F8948C9176
:10024000E22FE0958E238C932881E223E8839FBFE1
:10025000DF91CF9108958FB7F894EC91E22BEC9356
:100260008FBFF6CF3FB7F894809120029091210282
:10027000A0912202B091230226B5A89B05C02F3F72
:1002800019F00196A11DB11D3FBFBA2FA92F982FBC
:100290008827BC01CD01620F711D811D911D42E0B7
:1002A000660F771F881F991F4A95D1F708958F927F
:1002B0009F92AF92BF92CF92DF92EF92FF924B014B
:1002C0005C010E9432016B017C0124E0C21AD1085A
:1002D000E108F1080E9432016C197D098E099F091D
:1002E000681579058A059B05A8F3FF90EF90DF90CC
:1002F000CF90BF90AF909F908F90089580912902EA
:10030000882319F060E00C94D3002D980895882379
:1003100049F080912902882319F061E00C94D30000
:100320002D9A08950C947E014F925F926F927F9266
:100330008F929F92AF92BF92CF92DF92EF92FF92F5
:10034000CF93DF93CDB7DEB72D970FB6F894DEBF0E
:100350000FBECDBF7C010E94320169837A838B83FB
:100360009C834B015C011D86B0E0A0E09701AD01CC
:1003700025523109410951092D833E834F83588706
:100380009701AD01275031094109510929873A8761
:100390004B875C87F89461E0809124020E94D3002F
:1003A00080912702909128028230910538F0880FC1
:1003B000991F880F991F05970197F1F760E08091C9
:1003C00024020E94D30078943D85311107C08091AA
:1003D0002A02823019F481E00E948701809125026F
:1003E00090912602880E991EA11CB11CF8940E94BF
:1003F00032012B013C016B0149815A81C41AD50A93
:10040000F12CE12C8D819E81AF81B885C816D9066B
:10041000EA06FB0634F080912A02823011F40E9431
:100420007E0129853A854B855C85C216D306E40694
:10043000F506B4F078942D960FB6F894DEBF0FBE93
:10044000CDBFDF91CF91FF90EF90DF90CF90BF9025
:10045000AF909F908F907F906F905F904F90089596
:1004600031E03D87481459046A047B0408F4BFCF87
:1004700091CF8F929F92AF92BF92CF92DF92EF92E5
:10048000FF92CF934B015C0189E190E090932602AB
:100490008093250285E090E09093280280932702C4
:1004A00061E0809124020E94010180E699E00E94AF
:1004B000940168E572E080E090E00E945701C8E195
:1004C000C12CD12C90E8E92EF12CD501C4018C214E
:1004D0009D21AE21BF21892B8A2B8B2BD1F080EB64
:1004E00094E00E94940168E572E080E090E00E9450
:1004F0005701F694E794D794C794C15031F7CF9140
:10050000FF90EF90DF90CF90BF90AF909F908F9033
:10051000089588E592E0E5CF1F920F920FB60F92F3
:1005200011242F933F938F939F93AF93BF93809109
:100530001C0290911D02A0911E02B0911F023091E9
:100540001B0223E0230F2D3758F50196A11DB11D85
:1005500020931B0280931C0290931D02A0931E0205
:10056000B0931F028091200290912102A09122025B
:10057000B09123020196A11DB11D8093200290939A
:100580002102A0932202B0932302BF91AF919F91C9
:100590008F913F912F910F900FBE0F901F90189544
:1005A00026E8230F0296A11DB11DD2CF1F920F92F4
:1005B0000FB60F9211242F933F934F935F936F9336
:1005C0007F938F939F93AF93BF93CF93EF93FF93BB
:1005D000E0910201F0910301C08180910401C823E0
:1005E0008091050190910601019649F080910501E5
:1005F00090910601019690930601809305018091E8
:10060000000181111DC0C1116EC080910501909142
:1006100006018536910578F0109209018091050157
:100620009091060190930C0180930B0181E08093DF
:100630000A0180930001109206011092050153C037
:10064000809100018130A9F4CC2309F44CC0E091E1
:100650000A018E0F80930A01809105019091060195
:10066000F0E0EE0FFF1FE050FF4F9487838782E09A
:10067000E0CF80910001823009F04FC0C11122C04B
:10068000E0910A0181E0E03768F08093090183E09E
:1006900080930001E0910701F0910801309759F231
:1006A0000995C9CF8E0F80930A0180910501909121
:1006B0000601F0E0EE0FFF1FE050FF4F94878387A5
:1006C00081E0B7CF809105019091060185369105B3
:1006D00050F083E080930001E0910701F091080160
:1006E000309709F0099580912A02813021F4C111D7
:1006F00080E00E948701FF91EF91CF91BF91AF9170
:100700009F918F917F916F915F914F913F912F9129
:100710000F900FBE0F901F901895809100018330AD
:1007200011F7C111E0CF87CF789484B5826084BD82
:1007300084B5816084BD85B5826085BD85B58160E5
:1007400085BD80916E00816080936E001092810063
:10075000809181008260809381008091810081601E
:1007600080938100809180008160809380008091DF
:10077000B10084608093B1008091B000816080936B
:10078000B00080917A00846080937A0080917A0032
:10079000826080937A0080917A00816080937A00F1
:1007A00080917A00806880937A001092C10060E0A6
:1007B00084E00E94010160E082E00E940101C0E04B
:1007C000D0E084E00E94AA00019731F468EE75E061
:1007D00083E890E00E94390282E00E94AA0001971B
:1007E00031F468EE77E083E890E00E9439022097C8
:1007F00041F30E940000E5CFA0E0B1E0B0930F020A
:10080000A0930E0211961C921197EAE9F0E0E49190
:100810001496EC931497E6E8F0E0E491F0E0EE0F24
:10082000FF1FE458FF4F8591949113969C938E93EC
:10083000129760E080E00E9401011092290283E09B
:10084000809324020895EE0FFF1F0590F491E02D90
:060850000994F894FFCFAB
:107E0000112484B714BE81FFF0D085E080938100F7
:107E100082E08093C00088E18093C10086E0809377
:107E2000C20080E18093C4008EE0C9D0259A86E02C
:107E300020E33CEF91E0309385002093840096BBD3
:107E4000B09BFECF1D9AA8958150A9F7CC24DD24C4
:107E500088248394B5E0AB2EA1E19A2EF3E0BF2EE7
:107E6000A2D0813461F49FD0082FAFD0023811F036
:107E7000013811F484E001C083E08DD089C08234E0
:107E800011F484E103C0853419F485E0A6D080C0E4
:107E9000853579F488D0E82EFF2485D0082F10E0AE
:107EA000102F00270E291F29000F111F8ED06801E7
:107EB0006FC0863521F484E090D080E0DECF843638
:107EC00009F040C070D06FD0082F6DD080E0C81688
:107ED00080E7D80618F4F601B7BEE895C0E0D1E017
:107EE00062D089930C17E1F7F0E0CF16F0E7DF06D8
:107EF00018F0F601B7BEE89568D007B600FCFDCFD4
:107F0000A601A0E0B1E02C9130E011968C91119780
:107F100090E0982F8827822B932B1296FA010C0160
:107F200087BEE89511244E5F5F4FF1E0A038BF0790
:107F300051F7F601A7BEE89507B600FCFDCF97BE46
:107F4000E89526C08437B1F42ED02DD0F82E2BD052
:107F50003CD0F601EF2C8F010F5F1F4F84911BD097
:107F6000EA94F801C1F70894C11CD11CFA94CF0C13
:107F7000D11C0EC0853739F428D08EE10CD085E9AC
:107F80000AD08FE07ACF813511F488E018D01DD067
:107F900080E101D065CF982F8091C00085FFFCCF94
:107FA0009093C60008958091C00087FFFCCF809118
:107FB000C00084FD01C0A8958091C6000895E0E648
:107FC000F0E098E1908380830895EDDF803219F02E
:107FD00088E0F5DFFFCF84E1DECF1F93182FE3DFCA
:107FE0001150E9F7F2DF1F91089580E0E8DFEE27F6
:047FF000FF270994CA
:027FFE00040479
:00000001FF
